:100000000C942A000C941E090C9447000C94470091
:100010000C9447000C9447000C94AC080C944700D7
:100020000C9447000C9447000C94DC070C94A9072F
:100030000C9447000C9447000C9447000C94470024
:100040000C9447000C9447000C9447000C94470014
:100050000C94470011241FBECFE5D8E0DEBFCDBF12
:1000600011E0A0E6B0E0E8E6F5E402C005900D92EC
:10007000AC3FB107D9F712E0ACEFB1E001C01D927F
:10008000A530B107E1F70E94B2210C94B2220C9482
:100090000000EF92FF920F931F937B018C0120E0F1
:1000A00030E040E05FE40E94790388238CF0C801CF
:1000B000B70120E030E040E05FE40E94C1010E940F
:1000C00037049B01AC01205030404040504806C0EE
:1000D000C801B7010E9437049B01AC01B901CA01F4
:1000E0001F910F91FF90EF900895A0E0B0E0EBE733
:1000F000F0E00C947B22DC012B01FA019C91923000
:1001000008F439C1EB018881823008F433C194309E
:1001100069F4843009F02FC111969C91119789815F
:10012000981709F428C1A4EEB0E025C1843009F481
:1001300021C18230A9F4923009F01DC19A01AD01AC
:1001400088E0EA010990AE01E90109929E0181501F
:10015000C1F7E201898111969C918923818308C1AD
:10016000923009F407C112962D903C901397EB0141
:100170008A819B811496AD90BD90CD90DC901797AD
:10018000EC80FD800E811F819101281B390BB90184
:1001900037FF04C066277727621B730B6032710537
:1001A0000CF061C0121613066CF537014801062EDB
:1001B00004C096948794779467940A94D2F721E0C8
:1001C00030E040E050E004C0220F331F441F551FB1
:1001D0006A95D2F721503040404050402E213F21B7
:1001E00040235123211531054105510521F021E01E
:1001F00030E040E050E079018A01E628F72808293C
:1002000019293CC0232BD1F1260E371E350146019A
:10021000062E04C096948794779467940A94D2F734
:1002200021E030E040E050E004C0220F331F441FC3
:10023000551F6A95D2F721503040404050402A2146
:100240003B214C215D21211531054105510521F04E
:1002500021E030E040E050E059016A01A628B728CB
:10026000C828D9280BC0821593052CF01C01AA249C
:10027000BB24650103C0EE24FF24870111969C91E5
:10028000D20111968C91981709F445C0992339F041
:10029000A80197012A193B094C095D0906C0A6016E
:1002A00095012E193F09400B510B57FD08C01182D3
:1002B0003382228224833583468357831DC081E0A5
:1002C00081833382228288279927DC01821B930B4A
:1002D000A40BB50B84839583A683B7830DC0220F2F
:1002E000331F441F551F24833583468357838281E0
:1002F000938101979383828324813581468157813D
:10030000DA01C9010197A109B1098F5F9F4FAF4F72
:10031000BF4328F30BC0918333822282EA0CFB1C7B
:100320000C1D1D1DE482F5820683178383E0808304
:10033000248135814681578157FF1AC0C901AA27F8
:1003400097FDA095BA2F81709070A070B0705695EF
:10035000479537952795822B932BA42BB52B848318
:100360009583A683B7838281938101969383828349
:10037000DF0101C0D201CD01CDB7DEB7E2E10C94BF
:100380009722A0E2B0E0E7ECF1E00C9487226983C9
:100390007A838B839C832D833E834F835887E9E048
:1003A000EE2EF12CEC0EFD1ECE010196B7010E943F
:1003B000AF058E010F5E1F4FCE010596B8010E945A
:1003C000AF058A8991E089278A8BC701B801AE0100
:1003D000475E5F4F0E9475000E94DA04A096E6E037
:1003E0000C94A322A0E2B0E0E8EFF1E00C948722A5
:1003F00069837A838B839C832D833E834F835887C5
:10040000F9E0EF2EF12CEC0EFD1ECE010196B701A6
:100410000E94AF058E010F5E1F4FCE010596B801F9
:100420000E94AF05C701B801AE01475E5F4F0E9451
:1004300075000E94DA04A096E6E00C94A322A0E2E4
:10044000B0E0E5E2F2E00C947B2269837A838B834F
:100450009C832D833E834F835887CE010196BE0136
:10046000675F7F4F0E94AF05CE010596BE016F5EAC
:100470007F4F0E94AF059985923088F0898982303C
:10048000C8F0943019F4823051F404C0843029F457
:10049000923081F484EE90E0C6C0923049F420E0BE
:1004A0009A858A89981321E02A87CE010996BBC0D4
:1004B000823049F420E09A858A89981321E02A8BBA
:1004C000CE014196B0C02D843E844F8458886D88FB
:1004D0007E888F88988CEE24FF248701AA24BB2471
:1004E000650140E050E060E070E0E0E0F0E0C10174
:1004F00081709070892BE9F0E60CF71C081D191D1E
:100500009A01AB012A0D3B1D4C1D5D1D80E090E062
:10051000A0E0B0E0E614F7040805190520F481E036
:1005200090E0A0E0B0E0BA01A901480F591F6A1F8E
:100530007B1FAA0CBB1CCC1CDD1C97FE08C081E0F5
:1005400090E0A0E0B0E0A82AB92ACA2ADB2A3196B6
:10055000E032F10549F0660C771C881C991C569412
:10056000479437942794C3CFFA85EA892B893C892D
:100570008B859C85280F391F2E5F3F4F17C0CA01FE
:1005800081709070892B61F016950795F794E79428
:1005900080E090E0A0E0B0E8E82AF92A0A2B1B2BC3
:1005A00076956795579547952F5F3F4F77FDE7CF36
:1005B0000CC0440F551F661F771F17FD4160EE0CDE
:1005C000FF1C001F111F21503040403090E05907A0
:1005D00090E0690790E4790760F32B8F3C8FDB0193
:1005E000CA018F779070A070B07080349105A1051A
:1005F000B10561F447FD0AC0E114F10401051105DC
:1006000029F0405C5F4F6F4F7F4F40781A8EFE1786
:1006100011F081E08A8F4D8F5E8F6F8F78A383E01A
:10062000898FCE0149960E94DA04A096E2E10C94EB
:100630009722A8E1B0E0EFE1F3E00C948722698310
:100640007A838B839C832D833E834F83588789E0F5
:10065000E82EF12CEC0EFD1ECE010196B7010E9492
:10066000AF058E010F5E1F4FCE010596B8010E94A7
:10067000AF058985823040F08989823028F0C70132
:10068000B8010E94270601C081E06896E6E00C945C
:10069000A322A8E1B0E0EFE4F3E00C9487226983A1
:1006A0007A838B839C832D833E834F83588789E095
:1006B000E82EF12CEC0EFD1ECE010196B7010E9432
:1006C000AF058E010F5E1F4FCE010596B8010E9447
:1006D000AF058985823040F08989823028F0C701D2
:1006E000B8010E94270601C08FEF6896E6E00C94DF
:1006F000A322A8E1B0E0EFE7F3E00C94872269833E
:100700007A838B839C832D833E834F83588789E034
:10071000E82EF12CEC0EFD1ECE010196B7010E94D1
:10072000AF058E010F5E1F4FCE010596B8010E94E6
:10073000AF058985823040F08989823028F0C70171
:10074000B8010E94270601C08FEF6896E6E00C947E
:10075000A322A8E1B0E0EFEAF3E00C9487226983DA
:100760007A838B839C832D833E834F83588789E0D4
:10077000E82EF12CEC0EFD1ECE010196B7010E9471
:10078000AF058E010F5E1F4FCE010596B8010E9486
:10079000AF058985823040F08989823028F0C70111
:1007A000B8010E94270601C081E06896E6E00C943B
:1007B000A322A8E0B0E0EFEDF3E00C9484229B01CB
:1007C000AC0183E08983DA01C9018827B7FD8395ED
:1007D0009927AA27BB27B82E2115310541055105B8
:1007E00019F482E089833AC08823A9F0203080E0A0
:1007F000380780E0480780E8580729F460E070E097
:1008000080E09FEC30C0EE24FF248701E21AF30A57
:10081000040B150B02C079018A018EE1C82ED12C80
:10082000DC82CB82ED82FE820F831887C801B7017C
:100830000E948B0401971816190684F4082E04C030
:10084000EE0CFF1C001F111F0A94D2F7ED82FE82EE
:100850000F831887C81AD90ADC82CB82BA82CE01EC
:1008600001960E94DA042896E9E00C94A022ACE0FC
:10087000B0E0EDE3F4E00C948B2269837A838B8300
:100880009C83CE010196BE016B5F7F4F0E94AF0536
:100890008D81823061F1823050F1843021F48E817B
:1008A000882351F12EC02F81388537FD20C06E81FD
:1008B0002F3131051CF06623F9F023C08EE190E062
:1008C000821B930B29853A854B855C8504C0569520
:1008D0004795379527958A95D2F76623B1F05095BD
:1008E0004095309521953F4F4F4F5F4F0EC020E010
:1008F00030E040E050E009C02FEF3FEF4FEF5FE7FF
:1009000004C020E030E040E050E8B901CA012C9674
:10091000E2E00C94A722EF92FF920F931F937B01CA
:100920008C0180E0E81680E0F80681E0080780E0AE
:10093000180788F48FEFE816F1040105110531F06E
:1009400028F088E090E0A0E0B0E017C080E090E000
:10095000A0E0B0E012C080E0E81680E0F80680E099
:10096000080781E0180728F088E190E0A0E0B0E0F7
:1009700004C080E190E0A0E0B0E020E230E040E0A0
:1009800050E0281B390B4A0B5B0B04C016950795EA
:10099000F794E7948A95D2F7F701E451FF4F8081ED
:1009A000281B310941095109C9011F910F91FF907D
:1009B000EF900895DF92EF92FF920F931F93FC0147
:1009C000E480F58006811781D1808081823048F4EF
:1009D00080E090E0A0E1B0E0E82AF92A0A2B1B2B86
:1009E000A5C0843009F49FC0823021F4EE24FF2496
:1009F000870105C0E114F1040105110519F4E0E0D7
:100A0000F0E096C0628173819FEF623879070CF045
:100A10005BC022E83FEF261B370B2A3131052CF053
:100A200020E030E040E050E02AC0B801A701022EEB
:100A300004C076956795579547950A94D2F781E05B
:100A400090E0A0E0B0E004C0880F991FAA1FBB1F70
:100A50002A95D2F70197A109B1098E219F21A023E0
:100A6000B1230097A105B10521F081E090E0A0E05D
:100A7000B0E09A01AB01282B392B4A2B5B2BDA0112
:100A8000C9018F779070A070B07080349105A10576
:100A9000B10539F427FF09C0205C3F4F4F4F5F4F2E
:100AA00004C0215C3F4F4F4F5F4FE0E0F0E020304B
:100AB000A0E03A07A0E04A07A0E45A0710F0E1E0FE
:100AC000F0E079018A0127C06038710564F5FB0107
:100AD000E158FF4FD801C7018F779070A070B070B8
:100AE00080349105A105B10539F4E7FE0DC080E41D
:100AF00090E0A0E0B0E004C08FE390E0A0E0B0E0C0
:100B0000E80EF91E0A1F1B1F17FF05C01695079553
:100B1000F794E794319687E016950795F794E79454
:100B20008A95D1F705C0EE24FF248701EFEFF0E0AE
:100B30006E2F679566276795902F9F77D794DD2452
:100B4000D7948E2F8695492F462B582F5D29B701B4
:100B5000CA011F910F91FF90EF90DF900895FC0163
:100B6000DB01408151812281622F6F7770E0221F6B
:100B70002227221F9381892F880F822B282F30E074
:100B8000991F9927991F11969C931197211531054B
:100B9000A9F5411551056105710511F482E037C0D1
:100BA00082E89FEF13969C938E9312979A01AB0164
:100BB00067E0220F331F441F551F6A95D1F783E06A
:100BC0008C930DC0220F331F441F551F12968D9119
:100BD0009C911397019713969C938E9312972030B4
:100BE00080E0380780E0480780E4580758F31496FF
:100BF0002D933D934D935C93179708952F3F3105A7
:100C000079F4411551056105710519F484E08C935F
:100C1000089564FF03C081E08C9312C01C9210C041
:100C20002F57304013963C932E93129783E08C936A
:100C300087E0440F551F661F771F8A95D1F77064B0
:100C400014964D935D936D937C93179708951F931E
:100C5000DC01FB019C91923008F447C08081823016
:100C600008F443C0943051F411961C91843099F5E6
:100C70008181682F70E0611B71093FC0843021F0D1
:100C8000923031F48230B9F18181882389F12DC00D
:100C900011961C9111978230F1F081811817D9F4C7
:100CA00012962D913C91139782819381821793071D
:100CB00094F028173907BCF014968D919D910D90F2
:100CC000BC91A02D24813581468157812817390791
:100CD0004A075B0718F4112341F00AC082179307F3
:100CE000A407B50740F4112319F061E070E005C0D6
:100CF0006FEF7FEF02C060E070E0CB011F910895BD
:100D0000DF93CF93CDB7DEB7A3E5B0E0E3E5F0E046
:100D1000808180648C93A3E5B0E0E3E5F0E080811E
:100D200088608C93A3E5B0E0E3E5F0E080818F7C00
:100D30008C93A3E5B0E0E3E5F0E0808180628C93E2
:100D4000CF91DF910895DF93CF93CDB7DEB7A3E5C1
:100D5000B0E0E3E5F0E08081887F8C93A3E5B0E02C
:100D6000E3E5F0E080818C93CF91DF910895DF93EC
:100D7000CF93CDB7DEB7A3E5B0E0E3E5F0E0808147
:100D8000887F8C93A3E5B0E0E3E5F0E080818260AA
:100D90008C93CF91DF910895DF93CF930F92CDB7CE
:100DA000DEB78983E2E5F0E0898180830F90CF91FF
:100DB000DF910895DF93CF930F92CDB7DEB789838C
:100DC000ECE5F0E0898180830F90CF91DF91089569
:100DD000DF93CF9300D000D00F92CDB7DEB79A83C8
:100DE00089836B838B81282F30E03D832C838C811A
:100DF0009D81009731F02C813D812130310541F0FA
:100E00000DC089819A819093FD018093FC0106C0F9
:100E100089819A819093FF018093FE010F900F903A
:100E20000F900F900F90CF91DF910895DF93CF93A4
:100E300000D00F92CDB7DEB789838981282F30E0AB
:100E40003B832A838A819B81009731F02A813B81F1
:100E50002130310549F00FC0A9E5B0E0E9E5F0E047
:100E6000808181608C9307C0A9E5B0E0E9E5F0E0FE
:100E7000808182608C930F900F900F90CF91DF91C3
:100E80000895DF93CF9300D00F92CDB7DEB789835B
:100E90008981282F30E03B832A838A819B810097B8
:100EA00031F02A813B812130310549F00FC0A9E59D
:100EB000B0E0E9E5F0E080818E7F8C9307C0A9E582
:100EC000B0E0E9E5F0E080818D7F8C930F900F908A
:100ED0000F90CF91DF910895DF93CF930F92CDB70D
:100EE000DEB78983ECE5F0E08981882F90E0982FC8
:100EF000882724E630E0B9010E941722CB018150F7
:100F000080830F90CF91DF910895DF93CF930F925D
:100F1000CDB7DEB78983ECE5F0E08981482F50E05A
:100F2000CA019C01220F331FC9019695982F88276B
:100F300097958795821B930B840F951F24E630E0CD
:100F4000B9010E941722CB0180830F90CF91DF91CE
:100F500008951F920F920FB60F9211242F933F9373
:100F60004F935F936F937F938F939F93AF93BF93B1
:100F7000EF93FF93DF93CF93CDB7DEB78091FC0162
:100F80009091FD01009729F0E091FC01F091FD01A5
:100F90000995CF91DF91FF91EF91BF91AF919F9113
:100FA0008F917F916F915F914F913F912F910F9012
:100FB0000FBE0F901F9018951F920F920FB60F92B1
:100FC00011242F933F934F935F936F937F938F934E
:100FD0009F93AF93BF93EF93FF93DF93CF93CDB7DF
:100FE000DEB78091FE019091FF01009729F0E0911A
:100FF000FE01F091FF010995CF91DF91FF91EF91F3
:10100000BF91AF919F918F917F916F915F914F9120
:101010003F912F910F900FBE0F901F901895DF9367
:10102000CF93CDB7DEB7AEE4B0E0EEE4F0E0808180
:101030008E7F8C93AEE4B0E0EEE4F0E080818260DD
:101040008C93AEE4B0E0EEE4F0E080818B7F8C9393
:10105000CF91DF910895DF93CF93CDB7DEB7AEE4A4
:10106000B0E0EEE4F0E0808180648C93A9E5B0E02C
:10107000E9E5F0E0808180628C93CF91DF91089563
:10108000DF93CF9300D0CDB7DEB79A838983E6E4B0
:10109000F0E080819181E981FA81918380830F90D2
:1010A0000F90CF91DF910895DF93CF9300D00F92EF
:1010B000CDB7DEB789838981282F30E03B832A832F
:1010C0008A819B81009769F02A813B81213031051B
:1010D00079F4AEE4B0E0EEE4F0E0808180648C93DB
:1010E00007C0AEE4B0E0EEE4F0E080818F7B8C934B
:1010F0000F900F900F90CF91DF910895DF93CF93D2
:10110000CDB7DEB7A9E5B0E0E9E5F0E08081806227
:101110008C93CF91DF910895DF93CF93CDB7DEB756
:10112000A9E5B0E0E9E5F0E080818F7D8C93CF9177
:10113000DF910895DF93CF9300D0CDB7DEB79A83C8
:10114000898389819A8190930102809300020F9094
:101150000F90CF91DF9108951F920F920FB60F92CB
:1011600011242F933F934F935F936F937F938F93AC
:101170009F93AF93BF93EF93FF93DF93CF93CDB73D
:10118000DEB7E0910002F09101020995CF91DF9165
:10119000FF91EF91BF91AF919F918F917F916F914F
:1011A0005F914F913F912F910F900FBE0F901F9025
:1011B0001895DF93CF93CDB7DEB77894CF91DF91B9
:1011C0000895DF93CF93CDB7DEB7F894CF91DF9139
:1011D0000895DF93CF93CDB7DEB7A5E5B0E0E5E5A1
:1011E000F0E080818E7F8C93A5E5B0E0E5E5F0E04E
:1011F000808182608C93ABE5B0E0EBE5F0E080812C
:1012000080648C93AFE5B0E0EFE5F0E0808180682A
:101210008C93CF91DF910895DF93CF9300D0CDB71A
:10122000DEB79A83898389819A819093040280939F
:1012300003020F900F90CF91DF9108951F920F92AC
:101240000FB60F9211242F933F934F935F936F9399
:101250007F938F939F93AF93BF93EF93FF93DF930E
:10126000CF93CDB7DEB7E0910302F0910402099568
:10127000CF91DF91FF91EF91BF91AF919F918F91AE
:101280007F916F915F914F913F912F910F900FBE82
:101290000F901F901895DF93CF93CDB7DEB72A97A5
:1012A0000FB6F894DEBF0FBECDBF8B836C838B81EE
:1012B0009AE0692F0E94FE21892F8A838B819AE010
:1012C000692F0E94FE2189838C81282F30E03A8784
:1012D000298789859A85009739F029853A852130B3
:1012E000310509F476C0E4C08981282F30E03887C1
:1012F0002F838F8198858230910561F12F81388508
:101300002330310534F48F8198858130910569F05F
:10131000CFC02F8138852330310589F18F819885A1
:101320008430910509F440C0C3C0AAE3B0E0EAE309
:10133000F0E08081482F8A81282F30E081E090E022
:10134000022E02C0880F991F0A94E2F78095842329
:101350008C93AEC0A7E3B0E0E7E3F0E08081482FD4
:101360008A81282F30E081E090E0022E02C0880FB1
:10137000991F0A94E2F7809584238C9399C0A4E383
:10138000B0E0E4E3F0E08081482F8A81282F30E04C
:1013900081E090E0022E02C0880F991F0A94E2F7C4
:1013A000809584238C9384C0A1E3B0E0E1E3F0E076
:1013B0008081482F8A81282F30E081E090E0022E42
:1013C00002C0880F991F0A94E2F7809584238C93BA
:1013D0006FC08981282F30E03E832D838D819E81CF
:1013E0008230910551F12D813E812330310534F455
:1013F0008D819E818130910561F05AC02D813E81A1
:101400002330310571F18D819E8184309105E9F1A0
:101410004FC0AAE3B0E0EAE3F0E08081482F8A8180
:10142000282F30E081E090E0022E02C0880F991F43
:101430000A94E2F7842B8C933BC0A7E3B0E0E7E388
:10144000F0E08081482F8A81282F30E081E090E011
:10145000022E02C0880F991F0A94E2F7842B8C9306
:1014600027C0A4E3B0E0E4E3F0E08081482F8A8164
:10147000282F30E081E090E0022E02C0880F991FF3
:101480000A94E2F7842B8C9313C0A1E3B0E0E1E36C
:10149000F0E08081482F8A81282F30E081E090E0C1
:1014A000022E02C0880F991F0A94E2F7842B8C93B6
:1014B0002A960FB6F894DEBF0FBECDBFCF91DF9155
:1014C0000895DF93CF93CDB7DEB72A970FB6F89480
:1014D000DEBF0FBECDBF8B836C838B819AE0692FFB
:1014E0000E94FE21892F8A838B819AE0692F0E94B6
:1014F000FE2189838C81282F30E03A8729878985CE
:101500009A85009739F029853A852130310509F40B
:1015100076C0E4C08981282F30E038872F838F81FF
:1015200098858230910561F12F813885233031050E
:1015300034F48F8198858130910569F0CFC02F8177
:1015400038852330310589F18F8198858430910564
:1015500009F440C0C3C0ABE3B0E0EBE3F0E080814E
:10156000482F8A81282F30E081E090E0022E02C0CF
:10157000880F991F0A94E2F7809584238C93AEC05C
:10158000A8E3B0E0E8E3F0E08081482F8A81282FCB
:1015900030E081E090E0022E02C0880F991F0A948B
:1015A000E2F7809584238C9399C0A5E3B0E0E5E34E
:1015B000F0E08081482F8A81282F30E081E090E0A0
:1015C000022E02C0880F991F0A94E2F780958423A7
:1015D0008C9384C0A2E3B0E0E2E3F0E08081482F86
:1015E0008A81282F30E081E090E0022E02C0880F2F
:1015F000991F0A94E2F7809584238C936FC08981A8
:10160000282F30E03E832D838D819E81823091058D
:1016100051F12D813E812330310534F48D819E813D
:101620008130910561F05AC02D813E812330310512
:1016300071F18D819E8184309105E9F14FC0ABE35A
:10164000B0E0EBE3F0E08081482F8A81282F30E082
:1016500081E090E0022E02C0880F991F0A94E2F701
:10166000842B8C933BC0A8E3B0E0E8E3F0E08081FA
:10167000482F8A81282F30E081E090E0022E02C0BE
:10168000880F991F0A94E2F7842B8C9327C0A5E357
:10169000B0E0E5E3F0E08081482F8A81282F30E038
:1016A00081E090E0022E02C0880F991F0A94E2F7B1
:1016B000842B8C9313C0A2E3B0E0E2E3F0E08081DE
:1016C000482F8A81282F30E081E090E0022E02C06E
:1016D000880F991F0A94E2F7842B8C932A960FB6F1
:1016E000F894DEBF0FBECDBFCF91DF910895DF9399
:1016F000CF9300D000D00F92CDB7DEB78B838B8114
:101700009AE0692F0E94FE21892F8A838B819AE0BB
:10171000692F0E94FE2189838981282F30E03D8333
:101720002C838C819D818230910551F12C813D81EA
:101730002330310534F48C819D818130910561F035
:101740005AC02C813D812330310571F18C819D81FE
:1017500084309105E9F14FC0ABE3B0E0EBE3F0E09A
:101760008081482F8A81282F30E081E090E0022E8E
:1017700002C0880F991F0A94E2F784278C933BC01C
:10178000A8E3B0E0E8E3F0E08081482F8A81282FC9
:1017900030E081E090E0022E02C0880F991F0A9489
:1017A000E2F784278C9327C0A5E3B0E0E5E3F0E0FF
:1017B0008081482F8A81282F30E081E090E0022E3E
:1017C00002C0880F991F0A94E2F784278C9313C0F4
:1017D000A2E3B0E0E2E3F0E08081482F8A81282F85
:1017E00030E081E090E0022E02C0880F991F0A9439
:1017F000E2F784278C930F900F900F900F900F902B
:10180000CF91DF910895DF93CF9300D000D000D027
:10181000CDB7DEB78C838C819AE0692F0E94FE21C0
:10182000892F8B838C819AE0692F0E94FE218A8305
:1018300019828A81282F30E03E832D834D815E817D
:101840004230510541F18D819E818330910534F400
:101850002D813E812130310561F052C04D815E8184
:101860004330510551F18D819E8184309105B9F14C
:1018700047C0E9E3F0E08081282F30E08B81882F9A
:1018800090E0A90102C0559547958A95E2F7CA01F3
:101890008170898335C0E6E3F0E08081282F30E055
:1018A0008B81882F90E0A90102C0559547958A95B4
:1018B000E2F7CA018170898323C0E3E3F0E080810D
:1018C000282F30E08B81882F90E0A90102C0559528
:1018D00047958A95E2F7CA018170898311C0E0E3D8
:1018E000F0E08081282F30E08B81882F90E0A901E3
:1018F00002C0559547958A95E2F7CA0181708983A0
:10190000898126960FB6F894DEBF0FBECDBFCF916A
:10191000DF910895DF93CF93CDB7DEB728970FB649
:10192000F894DEBF0FBECDBF89836A838A81282FDA
:1019300030E038872F838F819885009731F02F8191
:1019400038852130310589F163C08981282F30E045
:101950003E832D838D819E8182309105D1F02D8132
:101960003E812330310534F48D819E818130910593
:1019700061F04EC02D813E812330310571F08D81A3
:101980009E818430910569F043C0EAE3F0E0108263
:101990003FC0E7E3F0E010823BC0E4E3F0E01082F8
:1019A00037C0E1E3F0E0108233C08981282F30E0B6
:1019B0003C832B838B819C8182309105D9F02B81D4
:1019C0003C812330310534F48B819C818130910539
:1019D00061F01EC02B813C812330310581F08B8169
:1019E0009C818430910581F013C0EAE3F0E08FEF31
:1019F00080830EC0E7E3F0E08FEF808309C0E4E36B
:101A0000F0E08FEF808304C0E1E3F0E08FEF8083AC
:101A100028960FB6F894DEBF0FBECDBFCF91DF91F1
:101A20000895DF93CF93CDB7DEB728970FB6F8941C
:101A3000DEBF0FBECDBF89836A838A81282F30E045
:101A400038872F838F819885009731F02F813885D3
:101A50002130310589F163C08981282F30E03E8330
:101A60002D838D819E8182309105D1F02D813E8123
:101A70002330310534F48D819E818130910561F0F0
:101A80004EC02D813E812330310571F08D819E81C4
:101A90008430910569F043C0EBE3F0E010823FC071
:101AA000E8E3F0E010823BC0E5E3F0E0108237C0ED
:101AB000E2E3F0E0108233C08981282F30E03C83DC
:101AC0002B838B819C8182309105D9F02B813C81C5
:101AD0002330310534F48B819C818130910561F094
:101AE0001EC02B813C812330310581F08B819C818C
:101AF0008430910581F013C0EBE3F0E08FEF808339
:101B00000EC0E8E3F0E08FEF808309C0E5E3F0E08A
:101B10008FEF808304C0E2E3F0E08FEF80832896AC
:101B20000FB6F894DEBF0FBECDBFCF91DF91089501
:101B3000DF93CF93CDB7DEB7A7E2B0E0E7E2F0E006
:101B4000808180648C93A7E2B0E0E7E2F0E08081DE
:101B50008F778C93A7E2B0E0E7E2F0E080818F7DA1
:101B60008C93A7E2B0E0E7E2F0E080818E7F8C9377
:101B7000A7E2B0E0E7E2F0E080818D7F8C93A7E2FE
:101B8000B0E0E7E2F0E080818B7F8C93A7E2B0E0E9
:101B9000E7E2F0E08081877F8C93A7E2B0E0E7E2A4
:101BA000F0E080818F7E8C93A6E2B0E0E6E2F0E088
:101BB000808181608C93A6E2B0E0E6E2F0E0808173
:101BC00082608C93A6E2B0E0E6E2F0E0808184607F
:101BD0008C93A6E2B0E0E6E2F0E0808180628C9334
:101BE000A6E2B0E0E6E2F0E0808180688C93CF91DD
:101BF000DF910895DF93CF93CDB7DEB7A6E2B0E0D3
:101C0000E6E2F0E0808180648C93E6E2F0E080819F
:101C100082958F70882F90E0817090700097A9F363
:101C2000E4E2F0E080819181CF91DF910895DF932C
:101C3000CF93CDB7DEB70E94980DCF91DF91089575
:101C4000DF93CF9300D000D0CDB7DEB70E94FA0D5E
:101C50009C838B838B819C81CC01A0E0B0E024EF3E
:101C600031E040E050E0BC01CD010E94DF21DC0109
:101C7000CB012FEF33E040E050E0BC01CD010E94EA
:101C80002A22DA01C9019A83898389819A810F9076
:101C90000F900F900F90CF91DF910895DF93CF9326
:101CA00000D00F92CDB7DEB789838981282F30E02D
:101CB0003B832A838A819B8182309105D9F02A81D6
:101CC0003B812330310534F48A819B818130910539
:101CD00061F01EC02A813B812330310581F08A8169
:101CE0009B818430910581F013C08AE260E00E94FC
:101CF0004B090EC08BE260E00E944B0909C08CE2E8
:101D000060E00E944B0904C08DE260E00E944B0934
:101D10000F900F900F90CF91DF910895DF93CF93A5
:101D2000CDB7DEB7EC970FB6F894DEBF0FBECDBFD0
:101D30008AAF81E089AF8AAD282F30E03CAF2BAF6E
:101D40008BAD9CAD8230910509F49DC02BAD3CADAF
:101D50002330310534F48BAD9CAD8130910571F0A9
:101D60001FC22BAD3CAD2330310509F411C18BAD41
:101D70009CAD8430910509F490C112C28AE20E94A0
:101D8000030C882309F00CC280E090E0A0EFB2E4DD
:101D90008DAB9EABAFABB8AF6DA97EA98FA998AD47
:101DA00020E030E04AE755E40E941F02DC01CB014D
:101DB00089AB9AABABABBCAB69A97AA98BA99CA93F
:101DC00020E030E040E85FE30E94A90388232CF480
:101DD00081E090E098AB8FA73FC069A97AA98BA951
:101DE0009CA920E03FEF4FE757E40E9449031816F3
:101DF0004CF56DA97EA98FA998AD20E030E040E2B6
:101E000051E40E941F02DC01CB01BC01CD010E9404
:101E10004900DC01CB0198AB8FA70FC080E991E0AE
:101E20009EA78DA78DA59EA50197F1F79EA78DA7CB
:101E30008FA598A9019798AB8FA78FA598A9009710
:101E400069F714C069A97AA98BA99CA90E944900C5
:101E5000DC01CB0198AB8FA78FA598A99CA78BA776
:101E60008BA59CA50197F1F79CA78BA78AE20E94FE
:101E7000030C882309F094C119AE8AE20E94030C76
:101E80008823D9F38DC18BE20E94030C882309F0CB
:101E900087C180E090E0A0EFB2E48FA398A7A9A744
:101EA000BAA76FA178A589A59AA520E030E04AE7F6
:101EB00055E40E941F02DC01CB018BA39CA3ADA3C0
:101EC000BEA36BA17CA18DA19EA120E030E040E8E3
:101ED0005FE30E94A90388232CF481E090E09AA399
:101EE00089A33FC06BA17CA18DA19EA120E03FEF03
:101EF0004FE757E40E94490318164CF56FA178A5E7
:101F000089A59AA520E030E040E251E40E941F023A
:101F1000DC01CB01BC01CD010E944900DC01CB01F9
:101F20009AA389A30FC080E991E098A38F8F8F8D2A
:101F300098A10197F1F798A38F8F89A19AA1019792
:101F40009AA389A389A19AA1009769F714C06BA1EC
:101F50007CA18DA19EA10E944900DC01CB019AA326
:101F600089A389A19AA19E8F8D8F8D8D9E8D0197BA
:101F7000F1F79E8F8D8F8BE20E94030C882309F06E
:101F80000FC119AE8BE20E94030C8823D9F308C15C
:101F90008CE20E94030C882309F002C180E090E0EB
:101FA000A0EFB2E4898F9A8FAB8FBC8F698D7A8D49
:101FB0008B8D9C8D20E030E04AE755E40E941F02A3
:101FC000DC01CB018D8B9E8BAF8BB88F6D897E89A9
:101FD0008F89988D20E030E040E85FE30E94A903FC
:101FE00088232CF481E090E09C8B8B8B3FC06D8923
:101FF0007E898F89988D20E03FEF4FE757E40E945C
:10200000490318164CF5698D7A8D8B8D9C8D20E0D7
:1020100030E040E251E40E941F02DC01CB01BC0130
:10202000CD010E944900DC01CB019C8B8B8B0FC042
:1020300080E991E09A8B898B89899A890197F1F7D8
:102040009A8B898B8B899C8901979C8B8B8B8B8935
:102050009C89009769F714C06D897E898F89988D56
:102060000E944900DC01CB019C8B8B8B8B899C8966
:10207000988B8F878F8598890197F1F7988B8F8739
:102080008CE20E94030C882309F08AC019AE8CE20E
:102090000E94030C8823D9F383C08DE20E94030CB5
:1020A000882309F07DC080E090E0A0EFB2E48B8748
:1020B0009C87AD87BE876B857C858D859E8520E05E
:1020C00030E04AE755E40E941F02DC01CB018F8318
:1020D0009887A987BA876F81788589859A8520E056
:1020E00030E040E85FE30E94A90388232CF481E0FC
:1020F00090E09E838D833FC06F81788589859A8526
:1021000020E03FEF4FE757E40E94490318164CF5D3
:102110006B857C858D859E8520E030E040E251E432
:102120000E941F02DC01CB01BC01CD010E944900CD
:10213000DC01CB019E838D830FC080E991E09C83FD
:102140008B838B819C810197F1F79C838B838D819D
:102150009E8101979E838D838D819E81009769F773
:1021600014C06F81788589859A850E944900DC01B9
:10217000CB019E838D838D819E819A838983898102
:102180009A810197F1F79A8389838DE20E94030C6B
:10219000882331F419AE8DE20E94030C8823D9F311
:1021A00089ADEC960FB6F894DEBF0FBECDBFCF91D0
:1021B000DF910895DF93CF9300D00F92CDB7DEB7B4
:1021C00089838981282F30E03B832A838A819B8100
:1021D0008230910579F02A813B812330310579F0F5
:1021E0008A819B818130910571F480E261E00E94D7
:1021F0004B0909C08FE161E00E944B0904C08EE1E8
:1022000061E00E944B090F900F900F90CF91DF91EA
:102210000895DF93CF9300D00F92CDB7DEB78983B7
:102220008981282F30E03B832A838A819B818230F9
:10223000910579F02A813B812330310579F08A813B
:102240009B818130910571F480E261E00E94610A16
:1022500009C08FE161E00E94610A04C08EE161E083
:102260000E94610A0F900F900F90CF91DF91089517
:10227000DF93CF9300D00F92CDB7DEB789838981EA
:10228000282F30E03B832A838A819B81823091050D
:1022900079F02A813B812330310579F08A819B8155
:1022A0008130910571F480E260E00E94610A09C00A
:1022B0008FE160E00E94610A04C08EE160E00E944C
:1022C000610A0F900F900F90CF91DF910895DF93E7
:1022D000CF9300D00F92CDB7DEB789838981282FA5
:1022E00030E03B832A838A819B818230910571F0A3
:1022F0002A813B812330310569F08A819B818130BD
:10230000910559F480E20E94770B07C08FE10E948B
:10231000770B03C08EE10E94770B0F900F900F9008
:10232000CF91DF910895DF93CF93CDB7DEB7AD970F
:102330000FB6F894DEBF0FBECDBF8BA78BA5282F9D
:1023400030E03DA72CA78CA59DA58230910509F40E
:1023500087C02CA53DA52330310509F4FCC08CA510
:102360009DA58130910509F070C180E261E00E9475
:10237000610A80E090E0A8ECB2E48FA398A7A9A737
:10238000BAA76FA178A589A59AA520E030E04AE711
:1023900055E40E941F02DC01CB018BA39CA3ADA3DB
:1023A000BEA36BA17CA18DA19EA120E030E040E8FE
:1023B0005FE30E94A90388232CF481E090E09AA3B4
:1023C00089A33FC06BA17CA18DA19EA120E03FEF1E
:1023D0004FE757E40E94490318164CF56FA178A502
:1023E00089A59AA520E030E040E251E40E941F0256
:1023F000DC01CB01BC01CD010E944900DC01CB0115
:102400009AA389A30FC080E991E098A38F8F8F8D45
:1024100098A10197F1F798A38F8F89A19AA10197AD
:102420009AA389A389A19AA1009769F714C06BA107
:102430007CA18DA19EA10E944900DC01CB019AA341
:1024400089A389A19AA19E8F8D8F8D8D9E8D0197D5
:10245000F1F79E8F8D8F80E260E00E94610AF5C0E7
:102460008FE161E00E94610A80E090E0A8ECB2E4B4
:10247000898F9A8FAB8FBC8F698D7A8D8B8D9C8D58
:1024800020E030E04AE755E40E941F02DC01CB0166
:102490008D8B9E8BAF8BB88F6D897E898F89988D40
:1024A00020E030E040E85FE30E94A90388232CF499
:1024B00081E090E09C8B8B8B3FC06D897E898F89FA
:1024C000988D20E03FEF4FE757E40E94490318162C
:1024D0004CF5698D7A8D8B8D9C8D20E030E040E24B
:1024E00051E40E941F02DC01CB01BC01CD010E941E
:1024F0004900DC01CB019C8B8B8B0FC080E991E004
:102500009A8B898B89899A890197F1F79A8B898BA4
:102510008B899C8901979C8B8B8B8B899C890097DD
:1025200069F714C06D897E898F89988D0E94490052
:10253000DC01CB019C8B8B8B8B899C89988B8F8743
:102540008F8598890197F1F7988B8F878FE160E0ED
:102550000E94610A7AC08EE161E00E94610A80E017
:1025600090E0A8ECB2E48B879C87AD87BE876B8533
:102570007C858D859E8520E030E04AE755E40E9409
:102580001F02DC01CB018F839887A987BA876F81EF
:10259000788589859A8520E030E040E85FE30E94F5
:1025A000A90388232CF481E090E09E838D833FC0B3
:1025B0006F81788589859A8520E03FEF4FE757E462
:1025C0000E94490318164CF56B857C858D859E8588
:1025D00020E030E040E251E40E941F02DC01CB0128
:1025E000BC01CD010E944900DC01CB019E838D839B
:1025F0000FC080E991E09C838B838B819C81019744
:10260000F1F79C838B838D819E8101979E838D83BF
:102610008D819E81009769F714C06F8178858985C7
:102620009A850E944900DC01CB019E838D838D81B8
:102630009E819A83898389819A810197F1F79A8390
:1026400089838EE160E00E94610AAD960FB6F8942E
:10265000DEBF0FBECDBFCF91DF910895DF93CF9343
:10266000CDB7DEB7AD970FB6F894DEBF0FBECDBFC6
:102670008BA78BA5282F30E03DA72CA78CA59DA567
:102680008230910509F485C02CA53DA52330310584
:1026900009F4F8C08CA59DA58130910509F06AC1A7
:1026A00081E00E94931180E090E0A8ECB2E48FA357
:1026B00098A7A9A7BAA76FA178A589A59AA520E090
:1026C00030E04AE755E40E941F02DC01CB018BA3F6
:1026D0009CA3ADA3BEA36BA17CA18DA19EA120E074
:1026E00030E040E85FE30E94A90388232CF481E0F6
:1026F00090E09AA389A33FC06BA17CA18DA19EA16C
:1027000020E03FEF4FE757E40E94490318164CF5CD
:102710006FA178A589A59AA520E030E040E251E4B8
:102720000E941F02DC01CB01BC01CD010E944900C7
:10273000DC01CB019AA389A30FC080E991E098A3A3
:102740008F8F8F8D98A10197F1F798A38F8F89A113
:102750009AA101979AA389A389A19AA1009769F7E1
:1027600014C06BA17CA18DA19EA10E944900DC0137
:10277000CB019AA389A389A19AA19E8F8D8F8D8D5C
:102780009E8D0197F1F79E8F8D8F81E00E949311AE
:10279000F1C082E00E94931180E090E0A8ECB2E4E6
:1027A000898F9A8FAB8FBC8F698D7A8D8B8D9C8D25
:1027B00020E030E04AE755E40E941F02DC01CB0133
:1027C0008D8B9E8BAF8BB88F6D897E898F89988D0D
:1027D00020E030E040E85FE30E94A90388232CF466
:1027E00081E090E09C8B8B8B3FC06D897E898F89C7
:1027F000988D20E03FEF4FE757E40E9449031816F9
:102800004CF5698D7A8D8B8D9C8D20E030E040E217
:1028100051E40E941F02DC01CB01BC01CD010E94EA
:102820004900DC01CB019C8B8B8B0FC080E991E0D0
:102830009A8B898B89899A890197F1F79A8B898B71
:102840008B899C8901979C8B8B8B8B899C890097AA
:1028500069F714C06D897E898F89988D0E9449001F
:10286000DC01CB019C8B8B8B8B899C89988B8F8710
:102870008F8598890197F1F7988B8F8782E00E9466
:10288000931178C083E00E94931180E090E0A8EC5F
:10289000B2E48B879C87AD87BE876B857C858D85F1
:1028A0009E8520E030E04AE755E40E941F02DC01EB
:1028B000CB018F839887A987BA876F8178858985AF
:1028C0009A8520E030E040E85FE30E94A903882376
:1028D0002CF481E090E09E838D833FC06F817885EA
:1028E00089859A8520E03FEF4FE757E40E9449032E
:1028F00018164CF56B857C858D859E8520E030E033
:1029000040E251E40E941F02DC01CB01BC01CD0179
:102910000E944900DC01CB019E838D830FC080E9BA
:1029200091E09C838B838B819C810197F1F79C8341
:102930008B838D819E8101979E838D838D819E8166
:10294000009769F714C06F81788589859A850E9400
:102950004900DC01CB019E838D838D819E819A830A
:10296000898389819A810197F1F79A83898383E02A
:102970000E949311AD960FB6F894DEBF0FBECDBF87
:10298000CF91DF910895DF93CF93CDB7DEB72E9728
:102990000FB6F894DEBF0FBECDBF80E161E00E94AC
:1029A0004B098FE061E00E944B098EE061E00E94DC
:1029B0004B098DE061E00E944B098CE061E00E94D0
:1029C0004B098BE061E00E944B0980E090E0AAE7B0
:1029D000B4E48B879C87AD87BE876B857C858D85AE
:1029E0009E8520E030E04AE755E40E941F02DC01AA
:1029F000CB018F839887A987BA876F81788589856E
:102A00009A8520E030E040E85FE30E94A903882334
:102A10002CF481E090E09E838D833FC06F817885A8
:102A200089859A8520E03FEF4FE757E40E944903EC
:102A300018164CF56B857C858D859E8520E030E0F1
:102A400040E251E40E941F02DC01CB01BC01CD0138
:102A50000E944900DC01CB019E838D830FC080E979
:102A600091E09C838B838B819C810197F1F79C8300
:102A70008B838D819E8101979E838D838D819E8125
:102A8000009769F714C06F81788589859A850E94BF
:102A90004900DC01CB019E838D838D819E819A83C9
:102AA000898389819A810197F1F79A83898383E3E6
:102AB0000E94811782E30E94811788E20E94811799
:102AC0008CE00E94811781E00E94811782E00E94C1
:102AD00081172E960FB6F894DEBF0FBECDBFCF91F3
:102AE000DF910895DF93CF93CDB7DEB7E9970FB6A7
:102AF000F894DEBF0FBECDBF89AF8BE061E00E94CE
:102B0000610AABE3B0E089AD8695982F9877EBE347
:102B1000F0E080818778892B8C938CE061E00E94C3
:102B2000610A80E090E0A0E8BFE38DAB9EABAFAB65
:102B3000B8AF6DA97EA98FA998AD20E030E04AE733
:102B400055E40E941F02DC01CB0189AB9AABABAB11
:102B5000BCAB69A97AA98BA99CA920E030E040E828
:102B60005FE30E94A90388232CF481E090E098ABF6
:102B70008FA73FC069A97AA98BA99CA920E03FEF44
:102B80004FE757E40E94490318164CF56DA97EA93A
:102B90008FA998AD20E030E040E251E40E941F028E
:102BA000DC01CB01BC01CD010E944900DC01CB015D
:102BB00098AB8FA70FC080E991E09EA78DA78DA548
:102BC0009EA50197F1F79EA78DA78FA598A90197BC
:102BD00098AB8FA78FA598A9009769F714C069A92A
:102BE0007AA98BA99CA90E944900DC01CB0198AB72
:102BF0008FA78FA598A99CA78BA78BA59CA50197AC
:102C0000F1F79CA78BA78CE060E00E94610A80E04E
:102C100090E0A0EAB0E48FA398A7A9A7BAA76FA1F4
:102C200078A589A59AA520E030E04AE755E40E94FE
:102C30001F02DC01CB018BA39CA3ADA3BEA36BA1A0
:102C40007CA18DA19EA120E030E040E85FE30E94DE
:102C5000A90388232CF481E090E09AA389A33FC0C4
:102C60006BA17CA18DA19EA120E03FEF4FE757E42F
:102C70000E94490318164CF56FA178A589A59AA55D
:102C800020E030E040E251E40E941F02DC01CB0171
:102C9000BC01CD010E944900DC01CB019AA389A3AC
:102CA0000FC080E991E098A38F8F8F8D98A1019735
:102CB000F1F798A38F8F89A19AA101979AA389A36D
:102CC00089A19AA1009769F714C06BA17CA18DA17D
:102CD0009EA10E944900DC01CB019AA389A389A18E
:102CE0009AA19E8F8D8F8D8D9E8D0197F1F79E8F6E
:102CF0008D8FABE3B0E089AD882F90E0880F991FEE
:102D0000880F991F880F991F982F9877EBE3F0E0B1
:102D100080818778892B8C938CE061E00E94610A26
:102D200080E090E0A0E8BFE3898F9A8FAB8FBC8FE3
:102D3000698D7A8D8B8D9C8D20E030E04AE755E4DB
:102D40000E941F02DC01CB018D8B9E8BAF8BB88F55
:102D50006D897E898F89988D20E030E040E85FE3BF
:102D60000E94A90388232CF481E090E09C8B8B8B3C
:102D70003FC06D897E898F89988D20E03FEF4FE7B6
:102D800057E40E94490318164CF5698D7A8D8B8D96
:102D90009C8D20E030E040E251E40E941F02DC0103
:102DA000CB01BC01CD010E944900DC01CB019C8B11
:102DB0008B8B0FC080E991E09A8B898B89899A89E6
:102DC0000197F1F79A8B898B8B899C8901979C8B52
:102DD0008B8B8B899C89009769F714C06D897E89DC
:102DE0008F89988D0E944900DC01CB019C8B8B8BD5
:102DF0008B899C89988B8F878F8598890197F1F7AC
:102E0000988B8F878CE060E00E94610A80E090E000
:102E1000A0EAB0E48B879C87AD87BE876B857C85F5
:102E20008D859E8520E030E04AE755E40E941F0230
:102E3000DC01CB018F839887A987BA876F8178855A
:102E400089859A8520E030E040E85FE30E94A9038D
:102E500088232CF481E090E09E838D833FC06F81B6
:102E6000788589859A8520E03FEF4FE757E40E94F7
:102E7000490318164CF56B857C858D859E8520E071
:102E800030E040E251E40E941F02DC01CB01BC01B2
:102E9000CD010E944900DC01CB019E838D830FC0D0
:102EA00080E991E09C838B838B819C810197F1F772
:102EB0009C838B838D819E8101979E838D838D81E1
:102EC0009E81009769F714C06F81788589859A85FE
:102ED0000E944900DC01CB019E838D838D819E8100
:102EE0009A83898389819A810197F1F79A838983EB
:102EF000E9960FB6F894DEBF0FBECDBFCF91DF913C
:102F00000895DF93CF93CDB7DEB7E9970FB6F89466
:102F1000DEBF0FBECDBF89AF8BE060E00E94610ACB
:102F2000ABE3B0E089AD8695982F9877EBE3F0E0BE
:102F300080818778892B8C938CE061E00E94610A04
:102F400080E090E0A0E8BFE38DAB9EABAFABB8AF45
:102F50006DA97EA98FA998AD20E030E04AE755E43D
:102F60000E941F02DC01CB0189AB9AABABABBCABBF
:102F700069A97AA98BA99CA920E030E040E85FE329
:102F80000E94A90388232CF481E090E098AB8FA7DE
:102F90003FC069A97AA98BA99CA920E03FEF4FE720
:102FA00057E40E94490318164CF56DA97EA98FA914
:102FB00098AD20E030E040E251E40E941F02DC01C5
:102FC000CB01BC01CD010E944900DC01CB0198ABD3
:102FD0008FA70FC080E991E09EA78DA78DA59EA524
:102FE0000197F1F79EA78DA78FA598A9019798AB98
:102FF0008FA78FA598A9009769F714C069A97AA926
:103000008BA99CA90E944900DC01CB0198AB8FA73A
:103010008FA598A99CA78BA78BA59CA50197F1F7D5
:103020009CA78BA78CE060E00E94610A80E090E0A2
:10303000A0EAB0E48FA398A7A9A7BAA76FA178A523
:1030400089A59AA520E030E04AE755E40E941F02D6
:10305000DC01CB018BA39CA3ADA3BEA36BA17CA180
:103060008DA19EA120E030E040E85FE30E94A9032B
:1030700088232CF481E090E09AA389A33FC06BA140
:103080007CA18DA19EA120E03FEF4FE757E40E9475
:10309000490318164CF56FA178A589A59AA520E0DB
:1030A00030E040E251E40E941F02DC01CB01BC0190
:1030B000CD010E944900DC01CB019AA389A30FC076
:1030C00080E991E098A38F8F8F8D98A10197F1F7F8
:1030D00098A38F8F89A19AA101979AA389A389A107
:1030E0009AA1009769F714C06BA17CA18DA19EA144
:1030F0000E944900DC01CB019AA389A389A19AA16E
:103100009E8F8D8F8D8D9E8D0197F1F79E8F8D8F68
:10311000ABE3B0E089AD882F90E0880F991F880F4E
:10312000991F880F991F982F9877EBE3F0E0808123
:103130008778892B8C938CE061E00E94610A80E0A3
:1031400090E0A0E8BFE3898F9A8FAB8FBC8F698D29
:103150007A8D8B8D9C8D20E030E04AE755E40E940B
:103160001F02DC01CB018D8B9E8BAF8BB88F6D89DD
:103170007E898F89988D20E030E040E85FE30E94EF
:10318000A90388232CF481E090E09C8B8B8B3FC0BB
:103190006D897E898F89988D20E03FEF4FE757E456
:1031A0000E94490318164CF5698D7A8D8B8D9C8D84
:1031B00020E030E040E251E40E941F02DC01CB013C
:1031C000BC01CD010E944900DC01CB019C8B8B8BA3
:1031D0000FC080E991E09A8B898B89899A89019740
:1031E000F1F79A8B898B8B899C8901979C8B8B8BB0
:1031F0008B899C89009769F714C06D897E898F89B6
:10320000988D0E944900DC01CB019C8B8B8B8B89B4
:103210009C89988B8F878F8598890197F1F7988B78
:103220008F878CE060E00E94610A80E090E0A0EA75
:10323000B0E48B879C87AD87BE876B857C858D8549
:103240009E8520E030E04AE755E40E941F02DC0141
:10325000CB018F839887A987BA876F817885898505
:103260009A8520E030E040E85FE30E94A9038823CC
:103270002CF481E090E09E838D833FC06F81788540
:1032800089859A8520E03FEF4FE757E40E94490384
:1032900018164CF56B857C858D859E8520E030E089
:1032A00040E251E40E941F02DC01CB01BC01CD01D0
:1032B0000E944900DC01CB019E838D830FC080E911
:1032C00091E09C838B838B819C810197F1F79C8398
:1032D0008B838D819E8101979E838D838D819E81BD
:1032E000009769F714C06F81788589859A850E9457
:1032F0004900DC01CB019E838D838D819E819A8361
:10330000898389819A810197F1F79A838983E99664
:103310000FB6F894DEBF0FBECDBFCF91DF910895F9
:10332000DF93CF9300D00F92CDB7DEB79B838A8314
:1033300019820EC08981282F30E08A819B81FC018F
:10334000E20FF31F80810E94721589818F5F89834C
:103350008981282F30E08A819B81FC01E20FF31FD5
:103360008081882339F70F900F900F90CF91DF91D4
:103370000895DF93CF93CDB7DEB766970FB6F89475
:10338000DEBF0FBECDBF6B8B7C8B8D8B9E8B80E0A9
:1033900090E0A0E0B0E08F839887A987BA871B826E
:1033A0001C821D821E821A82198288E0FE013B96D1
:1033B000DF01982F1D929A95E9F76B897C898D8999
:1033C0009E8920E030E040E050E00E94190388230D
:1033D00021F480E30E947215DFC06B897C898D899E
:1033E0009E8920E030E040E050E00E94A90388235D
:1033F00064F48DE20E9472158B899C89AD89BE8927
:10340000B0588B8B9C8BAD8BBE8B8B899C89AD8987
:10341000BE898F839887A987BA876B897C898D89B4
:103420009E890E943704DC01CB018B839C83AD8392
:10343000BE836B817C818D819E810E94D9039B011B
:10344000AC016F81788589859A850E94C101DC0174
:10345000CB018F839887A987BA8730C08B819C81E5
:10346000AD81BE812AE030E040E050E0BC01CD01FA
:103470000E944C22DC01CB018A838981282F3327CB
:1034800027FD3095CE010B96FC01E20FF31F8A81D8
:10349000808389818F5F89838B819C81AD81BE818F
:1034A0002AE030E040E050E0BC01CD010E944C2217
:1034B000DA01C9018B839C83AD83BE838B819C81A0
:1034C000AD81BE810097A105B10541F6898181508A
:1034D000898311C08981282F332727FD3095CE019C
:1034E0000B96FC01E20FF31F8081805D0E94721534
:1034F0008981815089838981882364F76F817885E8
:1035000089859A8520E030E040E050E00E94490340
:1035100018160CF041C08EE20E947215198239C053
:103520006F81788589859A8520E030E040E251E41A
:103530000E941F02DC01CB018F839887A987BA877D
:103540006F81788589859A850E944900DC01CB01CD
:103550008A838A81805D0E9472158A81882F90E01B
:10356000AA2797FDA095BA2FBC01CD010E94D903CF
:103570009B01AC016F81788589859A850E94C10184
:10358000DC01CB018F839887A987BA8789818F5FF8
:1035900089838981843024F266960FB6F894DEBF61
:1035A0000FBECDBFCF91DF910895DF93CF93CDB7FD
:1035B000DEB781E00E948117CF91DF910895DF93FC
:1035C000CF9300D000D0CDB7DEB78B836C8380E87B
:1035D000898380EC8A838B81282F30E0CE0101968D
:1035E000FC01E20FF31F90818C81890F0E948117EB
:1035F0000F900F900F900F90CF91DF910895DF9370
:10360000CF93CDB7DEB761970FB6F894DEBF0FBE8C
:10361000CDBF8F87688B498BC0C08F859AE0692F9B
:103620000E94FE21805D0E9472158F859AE0692FAD
:103630000E94FE21892F805D0E9472158AE30E94FC
:10364000721588899AE0692F0E94FE21805D0E9490
:10365000721588899AE0692F0E94FE21892F805D6A
:103660000E9472158AE30E94721589899AE0692F77
:103670000E94FE21805D0E94721589899AE0692F5F
:103680000E94FE21892F805D0E94721589898F5FBB
:10369000898B80E090E0AAE7B4E48B879C87AD87B4
:1036A000BE876B857C858D859E8520E030E04AE76E
:1036B00055E40E941F02DC01CB018F839887A98704
:1036C000BA876F81788589859A8520E030E040E867
:1036D0005FE30E94A90388232CF481E090E09E839D
:1036E0008D833FC06F81788589859A8520E03FEF83
:1036F0004FE757E40E94490318164CF56B857C850B
:103700008D859E8520E030E040E251E40E941F025A
:10371000DC01CB01BC01CD010E944900DC01CB01E1
:103720009E838D830FC080E991E09C838B838B8186
:103730009C810197F1F79C838B838D819E810197FA
:103740009E838D838D819E81009769F714C06F8160
:10375000788589859A850E944900DC01CB019E838A
:103760008D838D819E819A83898389819A81019736
:10377000F1F79A8389830E94D51A89898C3308F4DA
:103780004CCF198A88898F5F888B88898C33A8F3FE
:10379000188A198A8F858F5F8F878F858831A8F364
:1037A0001F86188A198AF9CFDF93CF93CDB7DEB77A
:1037B00062970FB6F894DEBF0FBECDBF9A8B898B90
:1037C000188A87C01F8606C080E20E9472158F8506
:1037D0008F5F8F879F8588899817B0F389899A8929
:1037E0000E94901980E090E0A8ECB2E48B879C875F
:1037F000AD87BE876B857C858D859E8520E030E01A
:103800004AE755E40E941F02DC01CB018F839887B1
:10381000A987BA876F81788589859A8520E030E00D
:1038200040E85FE30E94A90388232CF481E090E044
:103830009E838D833FC06F81788589859A8520E03E
:103840003FEF4FE757E40E94490318164CF56B858C
:103850007C858D859E8520E030E040E251E40E9429
:103860001F02DC01CB01BC01CD010E944900DC013B
:10387000CB019E838D830FC080E991E09C838B8375
:103880008B819C810197F1F79C838B838D819E8135
:1038900001979E838D838D819E81009769F714C067
:1038A0006F81788589859A850E944900DC01CB016A
:1038B0009E838D838D819E819A83898389819A815C
:1038C0000197F1F79A8389830E94D51A88898F5FBF
:1038D000888B8889803108F475CF72CFDF93CF93BE
:1038E000CDB7DEB788E161E00E944B0989E161E074
:1038F0000E944B098AE161E00E944B098BE161E083
:103900000E944B098BE260E00E944B098CE260E070
:103910000E944B098DE260E00E944B098BE261E05E
:103920000E94610A8CE261E00E94610A8DE261E01E
:103930000E94610A88E161E00E94610A89E161E018
:103940000E94610A8AE161E00E94610A8BE161E004
:103950000E94610ACF91DF910895DF93CF93CDB795
:10396000DEB7A7970FB6F894DEBF0FBECDBFCE016E
:1039700042969CA38BA3ECEEF1E0FEA3EDA3F0E155
:10398000FFA3EDA1FEA100808DA19EA101969EA3A3
:103990008DA3EBA1FCA100828BA19CA101969CA30D
:1039A0008BA39FA191509FA3EFA1EE2351F781E03C
:1039B000898B188A1F8688E18F87B4C08F8560E065
:1039C0000E94610A8BE2888BA2C088890E94030C46
:1039D000898B8989882309F097C080E090E0A0EF67
:1039E000B2E48B879C87AD87BE876B857C858D8590
:1039F0009E8520E030E04AE755E40E941F02DC018A
:103A0000CB018F839887A987BA876F81788589854D
:103A10009A8520E030E040E85FE30E94A903882314
:103A20002CF481E090E09E838D833FC06F81788588
:103A300089859A8520E03FEF4FE757E40E944903CC
:103A400018164CF56B857C858D859E8520E030E0D1
:103A500040E251E40E941F02DC01CB01BC01CD0118
:103A60000E944900DC01CB019E838D830FC080E959
:103A700091E09C838B838B819C810197F1F79C83E0
:103A80008B838D819E8101979E838D838D819E8105
:103A9000009769F714C06F81788589859A850E949F
:103AA0004900DC01CB019E838D838D819E819A83A9
:103AB000898389819A810197F1F79A83898388891B
:103AC0000E94030C882301F588890E94030C882337
:103AD000D9F38F85882F90E09C0128513040888948
:103AE000882F90E0AC014B525040220F331F220F21
:103AF000331FCE010196820F931F840F951FFC0187
:103B0000719680818AA313C088898F5F888B88898A
:103B10008E3208F45ACF8F8561E00E94610A8F854A
:103B20008F5F8F878F858C3108F448CF1AA28AA1C6
:103B3000A7960FB6F894DEBF0FBECDBFCF91DF9131
:103B40000895DF93CF93CDB7DEB785E161E00E94A2
:103B50004B0986E161E00E944B09CF91DF91089506
:103B6000DF93CF93CDB7DEB785E161E00E94610AB4
:103B700086E160E00E94610ACF91DF910895DF93B2
:103B8000CF93CDB7DEB785E160E00E94610A86E1A0
:103B900061E00E94610ACF91DF910895DF93CF9396
:103BA000CDB7DEB785E160E00E94610A86E160E0A2
:103BB0000E94610ACF91DF910895DF93CF930F9216
:103BC000CDB7DEB7898387E161E00E944B090E948F
:103BD000B70689810E9485070F90CF91DF910895E4
:103BE000DF93CF93CDB7DEB70E94A11D0E94C3140F
:103BF00083E00E94DA1082E00E94DA1081E00E94E5
:103C0000DA100E946E1C0E94170E0E9480060E940D
:103C1000E908CF91DF9108950F931F93DF93CF931E
:103C2000CDB7DEB727970FB6F894DEBF0FBECDBF76
:103C30001C821D821E821F821B821A8219826DC005
:103C40000E94D51A80E690E00E94901981E060E021
:103C50000E94DF1A81E790E00E94901981E066E0FF
:103C60000E94DF1A1A821DC08A81082F10E00E946C
:103C7000AD1C282FCE010496FC01E00FF11F20831C
:103C80008A81282F30E0CE010496FC01E20FF31F59
:103C90008081882349F38AE20E9472158A818F5FAE
:103CA0008A838A81843060F3CE0104960E949D1E2F
:103CB000898389818130A1F40E94DC1E1A820CC0A4
:103CC0008A81282F30E0CE010496FC01E20FF31F19
:103CD00010828A818F5F8A838A81843088F31DC035
:103CE0000E946A1F1A820CC08A81282F30E0CE0100
:103CF0000496FC01E20FF31F10828A818F5F8A8392
:103D00008A81843088F38B818F5F8B838B818330B2
:103D100020F082E00E9400201B828981813009F01E
:103D20008FCF198227960FB6F894DEBF0FBECDBF96
:103D3000CF91DF911F910F910895DF93CF93CDB76E
:103D4000DEB728970FB6F894DEBF0FBECDBF9F83B6
:103D50008E8381E38A8382E38B8383E38C8384E392
:103D60008D831982198219C08981282F30E08E81B4
:103D70009F81FC01E20FF31F40818981282F30E0F1
:103D8000CE010296FC01E20FF31F8081481711F06B
:103D9000188608C089818F5F89838981843020F3E8
:103DA00081E08887888528960FB6F894DEBF0FBE1D
:103DB000CDBFCF91DF910895DF93CF93CDB7DEB71D
:103DC0002E970FB6F894DEBF0FBECDBF82E00E94E3
:103DD0002E130E94D51A82E890E00E94901980E08C
:103DE00090E0AAE7B4E48B879C87AD87BE876B859C
:103DF0007C858D859E8520E030E04AE755E40E9471
:103E00001F02DC01CB018F839887A987BA876F8156
:103E1000788589859A8520E030E040E85FE30E945C
:103E2000A90388232CF481E090E09E838D833FC01A
:103E30006F81788589859A8520E03FEF4FE757E4C9
:103E40000E94490318164CF56B857C858D859E85EF
:103E500020E030E040E251E40E941F02DC01CB018F
:103E6000BC01CD010E944900DC01CB019E838D8302
:103E70000FC080E991E09C838B838B819C810197AB
:103E8000F1F79C838B838D819E8101979E838D8327
:103E90008D819E81009769F714C06F81788589852F
:103EA0009A850E944900DC01CB019E838D838D8120
:103EB0009E819A83898389819A810197F1F79A83F8
:103EC00089832E960FB6F894DEBF0FBECDBFCF917B
:103ED000DF910895DF93CF93CDB7DEB72E970FB65E
:103EE000F894DEBF0FBECDBF83E00E942E130E9468
:103EF000D51A83E990E00E94901981E060E00E9469
:103F0000DF1A82EA90E00E94901980E090E0AAE730
:103F1000B4E48B879C87AD87BE876B857C858D8558
:103F20009E8520E030E04AE755E40E941F02DC0154
:103F3000CB018F839887A987BA876F817885898518
:103F40009A8520E030E040E85FE30E94A9038823DF
:103F50002CF481E090E09E838D833FC06F81788553
:103F600089859A8520E03FEF4FE757E40E94490397
:103F700018164CF56B857C858D859E8520E030E09C
:103F800040E251E40E941F02DC01CB01BC01CD01E3
:103F90000E944900DC01CB019E838D830FC080E924
:103FA00091E09C838B838B819C810197F1F79C83AB
:103FB0008B838D819E8101979E838D838D819E81D0
:103FC000009769F714C06F81788589859A850E946A
:103FD0004900DC01CB019E838D838D819E819A8374
:103FE000898389819A810197F1F79A8389832E9633
:103FF0000FB6F894DEBF0FBECDBFCF91DF9108950D
:10400000DF93CF93CDB7DEB76F970FB6F894DEBFCF
:104010000FBECDBF8F8F8F8D8E8F1D8E0E94D51AB4
:1040200083EB90E00E94901980E090E0AAEFB3E467
:10403000898F9A8FAB8FBC8F698D7A8D8B8D9C8D7C
:1040400020E030E04AE755E40E941F02DC01CB018A
:104050008D8B9E8BAF8BB88F6D897E898F89988D64
:1040600020E030E040E85FE30E94A90388232CF4BD
:1040700081E090E09C8B8B8B3FC06D897E898F891E
:10408000988D20E03FEF4FE757E40E944903181650
:104090004CF5698D7A8D8B8D9C8D20E030E040E26F
:1040A00051E40E941F02DC01CB01BC01CD010E9442
:1040B0004900DC01CB019C8B8B8B0FC080E991E028
:1040C0009A8B898B89899A890197F1F79A8B898BC9
:1040D0008B899C8901979C8B8B8B8B899C89009702
:1040E00069F7C1C06D897E898F89988D0E944900CA
:1040F000DC01CB019C8B8B8B8B899C89988B8F8768
:104100008F8598890197F1F7988B8F87ACC081E0F4
:1041100065E00E94DF1A8E8D9AE0692F0E940A22C4
:10412000805D0E9472158E8D9AE0692F0E940A228E
:10413000892F805D0E9472158AE30E9472158AC0E1
:1041400081E068E00E94DF1A8D8D9AE0692F0E945D
:104150000A22805D0E9472158D8D9AE0692F0E945F
:104160000A22892F805D0E9472158D8D81508D8F5E
:1041700080E090E0AAE7B4E48B879C87AD87BE8798
:104180006B857C858D859E8520E030E04AE755E48F
:104190000E941F02DC01CB018F839887A987BA8711
:1041A0006F81788589859A8520E030E040E85FE37B
:1041B0000E94A90388232CF481E090E09E838D83E4
:1041C0003FC06F81788589859A8520E03FEF4FE772
:1041D00057E40E94490318164CF56B857C858D8544
:1041E0009E8520E030E040E251E40E941F02DC01A5
:1041F000CB01BC01CD010E944900DC01CB019E83B3
:104200008D830FC080E991E09C838B838B819C819F
:104210000197F1F79C838B838D819E8101979E830B
:104220008D838D819E81009769F714C06F81788599
:1042300089859A850E944900DC01CB019E838D838C
:104240008D819E819A83898389819A810197F1F773
:104250009A8389838D8D88230CF072CF8CE38D8FA8
:104260008E8D81508E8F8E8D88230CF050CF8F8D48
:104270008E8F1D8E6F960FB6F894DEBF0FBECDBF2A
:10428000CF91DF910895DF93CF93CDB7DEB780E074
:1042900060E00E94DF1A82EC90E00E94901981E0B9
:1042A00060E00E94DF1A83ED90E00E949019CF91A8
:1042B000DF910895DF93CF9300D00F92CDB7DEB793
:1042C00019820E94AD1C89838981282F30E03B83AD
:1042D0002A838A819B818133910531F02A813B8138
:1042E0002233310529F007C081E00E94091103C083
:1042F00081E00E9438110F900F900F90CF91DF91C5
:104300000895DF93CF930F92CDB7DEB70E94200EB2
:10431000898389818E3120F084E60E94A3210FC019
:1043200089818A3138F089818E3120F482E30E94BC
:10433000A32105C080E00E94A3210E94CE1D0F9002
:10434000CF91DF910895DF93CF930F92CDB7DEB772
:1043500089830E94B01D89810E94DD1D0F90CF913D
:10436000DF910895DF93CF93CDB7DEB70E94F01DA4
:1043700085ED91E20E940C090E94E1080E940C1E4A
:104380000E9443210E94D90804C00E9481210E94FA
:104390005A21809102028130C1F70E94CE1D81E036
:1043A0000E94381110920202E7CFDF93CF93CDB76E
:1043B000DEB781E080930202CF91DF910895629F82
:1043C000D001739FF001829FE00DF11D649FE00D0D
:1043D000F11D929FF00D839FF00D749FF00D659F6E
:1043E000F00D9927729FB00DE11DF91F639FB00D6D
:1043F000E11DF91FBD01CF0111240895991B79E03A
:1044000004C0991F961708F0961B881F7A95C9F764
:104410008095089587FB082E062687FD819567FD08
:104420006195ECDF0EF4919507FC8195089597FB5B
:10443000092E07260AD077FD04D049D006D00020E7
:104440001AF4709561957F4F0895F6F790958195D0
:104450009F4F0895A1E21A2EAA1BBB1BFD010DC0A0
:10446000AA1FBB1FEE1FFF1FA217B307E407F50724
:1044700020F0A21BB30BE40BF50B661F771F881F00
:10448000991F1A9469F760957095809590959B0196
:10449000AC01BD01CF01089597FB092E05260ED072
:1044A00057FD04D0D7DF0AD0001C38F45095409552
:1044B000309521953F4F4F4F5F4F0895F6F79095F8
:1044C0008095709561957F4F8F4F9F4F0895AA1BE0
:1044D000BB1B51E107C0AA1FBB1FA617B70710F0EF
:1044E000A61BB70B881F991F5A95A9F78095909521
:1044F000BC01CD0108952F923F924F925F926F922F
:104500007F928F929F92AF92BF92CF92DF92EF9263
:10451000FF920F931F93CF93DF93CDB7DEB7CA1BE4
:10452000DB0B0FB6F894DEBF0FBECDBF09942A880F
:10453000398848885F846E847D848C849B84AA84B7
:10454000B984C884DF80EE80FD800C811B81AA8144
:10455000B981CE0FD11D0FB6F894DEBF0FBECDBF0F
:08456000ED010895F894FFCF6E
:1045680020456E7465722050617373776F72642092
:10457800002020202020202D2D2D2D20202020201F
:1045880020002057656C636F6D6520546F20486F5D
:104598006D650057726F6E672050617373776F7225
:1045A8006400506C656173652054727920416761BD
:1045B800696E002053797374656D204C6F636B6569
:1045C8006400312D204C454473204F4E202020207C
:1045D800202000322D204C454473204F4646202091
:1045E800202020000000000000000000000102025E
:1045F8000303030304040404040404040505050573
:10460800050505050505050505050505060606064E
:104618000606060606060606060606060606060632
:10462800060606060606060606060606070707071E
:104638000707070707070707070707070707070702
:1046480007070707070707070707070707070707F2
:1046580007070707070707070707070707070707E2
:1046680007070707070707070707070708080808CE
:1046780008080808080808080808080808080808B2
:1046880008080808080808080808080808080808A2
:104698000808080808080808080808080808080892
:1046A8000808080808080808080808080808080882
:1046B8000808080808080808080808080808080872
:1046C8000808080808080808080808080808080862
:1046D8000808080808080808080808080808080852
:1046E800080808080808080808080808313233418B
:0C46F80034353642373839432A30234429
:00000001FF
